:1000000076C000009BC0000099C0000097C00000AF
:1000100095C0000093C0000091C000008FC0000098
:100020008DC000008BC0000089C0000087C00000A8
:1000300085C0000083C0000081C000007FC00000B8
:100040000C9430087BC000009AC50000CAC50000AF
:1000500075C0000073C0000071C000006FC00000D8
:1000600031C300006BC0000007634236B79BD8A7BE
:100070001A39685618AEBAAB558C1D3CB7CC5763CD
:10008000BD6DEDFD753EF6177231BF000000803F7B
:1000900008000000BE922449123EABAAAA2ABECD97
:1000A000CCCC4C3E00000080BEABAAAAAA3E000009
:1000B0000000BF000000803F000000000008417801
:1000C000D3BB4387D1133D190E3CC3BD4282AD2B38
:1000D0003E68EC8276BED98FE1A93E4C80EFFFBE30
:1000E00001C4FF7F3F0000000000CB011606112471
:1000F0001FBECFEFD8E0DEBFCDBF11E0A0E0B1E082
:10010000E6E0F0E202C005900D92A03BB107D9F7FE
:1001100023E0A0EBB1E001C01D92A631B207E1F7E8
:1001200010E0CEEED0E004C02297FE010E94660CE3
:10013000CA3ED107C9F76CD00C94011061CFCF93A0
:10014000DF93CDB7DEB76E970FB6F894DEBF0FBE64
:10015000CDBF26E040E855E260E070E080E792E045
:10016000AED460E071E080E792E0ECD563E0CE01D0
:1001700001960E949C090AE010E06FE071E080E7C0
:1001800092E0D5D5CE0101960E94810AB8010E9465
:10019000EF0B4AE050E080E792E082D66CE271E03B
:1001A00080E792E0CFD561E371E080E792E0BFD5D0
:1001B000CE0101960E94970AAB01BC012AE030E013
:1001C00080E792E026D66BE471E080E792E0BAD552
:1001D0006FE471E080E792E0AAD5CE0101960E941B
:1001E0000F09AB01BC0122E030E080E792E036D796
:1001F00069E671E080E792E0A5D56DE871E080E7FF
:1002000092E095D568EE73E080E090E096D7B5CFA8
:10021000C4D795DF8091E00190E02091E101821B3D
:10022000910908952091E1018091E001281750F48F
:10023000E22FF0E0EE51FE4F808190E02F5F20939F
:10024000E10108958FEF9FEF0895E091E101809122
:10025000E001E81730F4F0E0EE51FE4F808190E0CD
:1002600008958FEF9FEF08950895CF92DF92EF9258
:10027000FF920F931F93CF93DF937C01CB018A01F1
:100280002091BC01222389F0EB016B01C40ED51E25
:10029000CC15DD0561F06991D701ED91FC910190DC
:1002A000F081E02DC7010995F3CF642FE2D1C80199
:1002B000DF91CF911F910F91FF90EF90DF90CF9042
:1002C0000895CF93DF931F92CDB7DEB76983209156
:1002D000BC012223D1F02091BD01203240F021E069
:1002E00030E0FC013383228380E090E014C08091F1
:1002F000BE01E82FF0E0E154FE4F998190838F5FBB
:100300008093BE018093BD0104C061E0CE010196DF
:10031000B0D181E090E00F90DF91CF910895FC0182
:100320001382128248EE53E060E070E0448355830C
:100330006683778380E791E0918380830895862F99
:10034000413208F040E262EE71E0FCD01092E1012F
:100350008093E001089521E0F2CF81E08093BC0119
:100360006093DF011092BE011092BD0108950F93BA
:10037000062F21E04091BD016FEB71E08091DF011C
:1003800025D11092BE011092BD011092BC010F91B7
:10039000089561E0ECCF80EB91E0C1CFDC01ED91FD
:1003A000FC910190F081E02D09940F931F93CF935E
:1003B000DF9300D0CDB7DEB78C012A83498329D7DC
:1003C0004981F80141832A8122830F900F90DF91A8
:1003D000CF911F910F910895CF92DF92EF92FF92EC
:1003E0000F931F93CF93DF93EC016B018A01790187
:1003F00013D7682F80EB91E0B0DFC981CC23A1F047
:100400008C2F90E0019723E0880F991F2A95E1F740
:10041000B60102C0769567958A95E2F7772780EB5B
:1004200091E0BCDFC150EACFE801CE01801B910B07
:100430008E159F052CF4699180EB91E042DFF5CF9A
:1004400080EB91E0A6DF65E070E080E090E0DF9176
:10045000CF911F910F91FF90EF90DF90CF906DC6DD
:100460009F92AF92BF92CF92DF92EF92FF920F9343
:100470001F93CF93DF938C01EB016A017901AA24CA
:10048000AA94A20EC9D6682F80EB91E066DFF8012E
:10049000B180BB20A1F0EB2DF0E0319743E0EE0FEF
:1004A000FF1F4A95E1F7BE0102C076956795EA9570
:1004B000E2F7772780EB91E071DFBA94EACF80EB27
:1004C00091E067DF65E070E080E090E036D6C8013B
:1004D000A3D6682F70E0A70180EB91E03CDFC0E07D
:1004E000D0E0B12CCE15DF050CF53FE7932E80EB65
:1004F00091E090DE892B31F49A94C1F081E090E094
:1005000041D6F5CF992091F080EB91E08BDEF80198
:100510009281913021F495012C1B3D0B01C09E016D
:10052000F601E20FF31F80832196DCCFDF91CF919C
:100530001F910F91FF90EF90DF90CF90BF90AF9001
:100540009F900895413208F03FC090916F02911141
:10055000FCCF91E090936F0220936D022FEF2093D8
:10056000020210924702240F2093460290936E02DB
:1005700090916E02880F892B80936E0280916C029D
:10058000813041F410926C0280916E028093BB0026
:1005900085EC01C085EE8093BC0080916F028130B4
:1005A000E1F380914702841710F44091470228E458
:1005B00032E0FB01D9018A2F821B841718F48D9138
:1005C0008193F9CF842F089580E008950F934132ED
:1005D00008F046C090916F029111FCCF92E0909389
:1005E0006F0200936D029FEF9093020210924702F8
:1005F00040934602FB0168E472E0DB019A2F961BF0
:10060000941718F491919D93F9CF10926E029091E6
:100610006E02880F892B80936E0280916C0281306C
:1006200041F410926C0280916E028093BB0085ECC5
:1006300001C085EE8093BC00222321F080916F02DF
:100640008230E1F3809102028F3F61F080910202DB
:10065000803251F080910202803341F483E007C080
:1006600081E005C080E003C082E001C084E00F911A
:100670000895613298F420916F02243089F46093D8
:100680002402FC0186E292E0DC012A2F281B2617B7
:1006900018F421912D93F9CF80E0089581E0089519
:1006A00082E0089585ED8093BC008091BC0084FDBC
:1006B000FCCF10926F02089585EC8093BC001092DD
:1006C0006F0208951F920F920FB60F9211242F936D
:1006D0003F934F935F936F937F938F939F93AF93CA
:1006E000BF93EF93FF938091B900887F803609F420
:1006F0009CC068F5883209F45BC090F4803109F43D
:1007000054C038F4882309F4F3C0883009F44DC08C
:10071000F2C0883109F44CC0803209F45DC0EBC0EE
:10072000803409F468C048F4803309F455C0883334
:1007300009F0E1C080930202A7C0803509F44FC0E0
:10074000883509F45DC0883409F0D5C0D3C0883934
:1007500009F4C4C0A8F4883709F467C038F48836AF
:1007600009F463C0803709F460C0C5C0883809F453
:10077000B5C0803909F45FC0803809F0BCC05BC0E7
:10078000803B09F483C038F4803A09F466C0883AA3
:1007900009F47CC0B0C0803C09F4A4C0883C09F4D2
:1007A000A1C0883B09F487C0A6C080916E0210C02A
:1007B0009091470280914602981770F5E0914702A8
:1007C00081E08E0F80934702F0E0E85BFD4F80816F
:1007D0008093BB0085EC83C0809302028BC0E091C4
:1007E000470281E08E0F809347028091BB00F0E0CA
:1007F000E85BFD4F808390914702809146026BC079
:10080000E091470281E08E0F809347028091BB0008
:10081000F0E0E85BFD4F808380916D0281116AC03A
:1008200081E080936C0284EA5EC083E080936F0273
:1008300010920302CFCF80910302803208F04EC0A5
:10084000E091030281E08E0F809303028091BB0050
:10085000F0E0EC5FFD4F8083BDCF809103028032DA
:1008600030F4E0910302F0E0EC5FFD4F10821ADFFC
:100870006091030270E0E0916802F091690284E007
:1008800092E009951092030217DF35C084E080934F
:100890006F021092250210922402E0916A02F091F8
:1008A0006B02099580912402811105C081E080933B
:1008B000240210922602E091250281E08E0F80939F
:1008C0002502F0E0EA5DFD4F80818093BB009091AE
:1008D000250280912402981708F47CCF85E8809344
:1008E000BC0009C085EC8093BC0010926F0203C06D
:1008F00010920202D7DEFF91EF91BF91AF919F91CD
:100900008F917F916F915F914F913F912F910F90B8
:100910000FBE0F901F901895FC01818D228D90E0E5
:10092000805C9F4F821B91098F7399270895FC016A
:10093000918D828D981731F0828DE80FF11D858D94
:1009400090E008958FEF9FEF0895FC01918D828DC7
:10095000981761F0828DDF01A80FB11D5D968C9113
:10096000928D9F5F9F73928F90E008958FEF9FEF1E
:100970000895FC01848DDF01A80FB11DA35ABF4F5C
:100980002C91848D90E001968F739927848FA6898E
:10099000B7892C93A089B1898C9180648C93938DB5
:1009A000848D981306C00288F389E02D80818F7DA5
:1009B00080830895CF93DF93EC01888D8823C1F065
:1009C000EA89FB89808185FD05C0A889B9898C9158
:1009D00086FD0EC00FB607FCF5CF808185FFF2CFF4
:1009E000A889B9898C9185FFEDCFCE01C2DFE8CF10
:1009F000DF91CF910895CF92DF92FF920F931F93D3
:100A0000CF93DF931F92CDB7DEB76C0181E0D601A3
:100A100058968C9358975B969C915B975C968C91BB
:100A20005C97981307C05096ED91FC915197808187
:100A300085FD2DC0F601038D10E00F5F1F4F0F7372
:100A40001127F02EF601848DF81210C00FB607FCA6
:100A5000F9CFD6015096ED91FC915197808185FF99
:100A6000F1CFC601698385DF6981ECCF838DE80F03
:100A7000F11DE35AFF4F6083D6015B960C935B97A1
:100A80005296ED91FC915397808180620CC0D60103
:100A90005696ED91FC91579760835096ED91FC919D
:100AA000519780818064808381E090E00F90DF9196
:100AB000CF911F910F91FF90DF90CF900895BF923B
:100AC000CF92DF92EF92FF92CF93DF93EC016A0116
:100AD0007B01B22EE889F98982E08083411581EE9D
:100AE00058076105710599F060E079E08DE390E0C9
:100AF000A701960187D62150310941095109569520
:100B0000479537952795211580E1380790F0E889BA
:100B1000F989108260E874E88EE190E0A7019601FF
:100B200071D621503109410951095695479537959C
:100B30002795EC85FD853083EE85FF852083188E13
:100B4000EC89FD89B082EA89FB898081806180839C
:100B5000EA89FB89808188608083EA89FB898081BA
:100B600080688083EA89FB8980818F7D8083DF9123
:100B7000CF91FF90EF90DF90CF90BF9008951F929C
:100B80000F920FB60F9211242F938F939F93EF9391
:100B9000FF93E0918002F09181028081E0918602D2
:100BA000F091870282FD12C09081809189028F5F4F
:100BB0008F7320918A02821751F0E0918902F0E050
:100BC000E059FD4F958F8093890201C08081FF918C
:100BD000EF919F918F912F910F900FBE0F901F90CB
:100BE00018951F920F920FB60F9211242F933F93D7
:100BF0004F935F936F937F938F939F93AF93BF9325
:100C0000EF93FF9380E792E0B4DEFF91EF91BF9105
:100C1000AF919F918F917F916F915F914F913F9194
:100C20002F910F900FBE0F901F9018951092730286
:100C30001092720288EE93E0A0E0B0E0809374021C
:100C400090937502A0937602B093770280E891E0CA
:100C5000909371028093700285EC90E090937D02F6
:100C600080937C0284EC90E090937F0280937E02DC
:100C700080EC90E0909381028093800281EC90E080
:100C8000909383028093820282EC90E0909385029D
:100C90008093840286EC90E0909387028093860292
:100CA0001092890210928A0210928B0210928C028A
:100CB0000895CF92DF92EF92FF920F931F93CF93FD
:100CC000DF936C017A01EB01E60EF71E00E010E005
:100CD000CE15DF0561F06991D601ED91FC9101908F
:100CE000F081E02DC6010995080F191FF1CFC80149
:100CF000DF91CF911F910F91FF90EF90DF90CF90F8
:100D000008956115710581F0DB010D900020E9F770
:100D1000AD0141505109461B570BDC01ED91FC918F
:100D20000280F381E02D099480E090E00895E9CFFE
:100D3000DC01ED91FC910190F081E02D09946CE8CB
:100D400071E0DFCF0F931F93CF93DF93EC01D9DFD7
:100D50008C01CE01F4DF800F911FDF91CF911F91A5
:100D60000F9108958F929F92AF92BF92CF92DF9290
:100D7000EF92FF920F931F93CF93DF93CDB7DEB720
:100D8000A1970FB6F894DEBF0FBECDBF7C01C42E75
:100D9000E52FCB01D22E19A221E02D1510F02AE06B
:100DA000D22E8E010F5D1F4F8D2C912CA12CB12CBA
:100DB0006C2D7E2FA501940125D58C2DD29E8019F6
:100DC0001124015011098A3010F4805D01C0895C42
:100DD000F8018083211531054105510521F0C22E0E
:100DE000E32FCA01E5CFB801C7018BDFA1960FB68B
:100DF000F894DEBF0FBECDBFDF91CF911F910F9151
:100E0000FF90EF90DF90CF90BF90AF909F908F902A
:100E10000895CF92DF92EF92FF920F931F93CF939B
:100E2000DF93EC016A017B012115310579F4E8813A
:100E3000F9810190F081E02D642FDF91CF911F9116
:100E40000F91FF90EF90DF90CF9009942A303105F9
:100E5000D9F477FF18C06DE26BDF8C01442755276A
:100E6000BA014C195D096E097F092AE0CE017ADFCB
:100E7000800F911FDF91CF911F910F91FF90EF9005
:100E8000DF90CF9008952AE0B701A601CE01DF914F
:100E9000CF911F910F91FF90EF90DF90CF9062CF95
:100EA0009A01AB01662757FD6095762FB2CF4F921E
:100EB0005F926F927F928F929F92AF92BF92CF92EA
:100EC000DF92EF92FF920F931F93CF93DF93EC018A
:100ED0006A017B01B22E9A01AB01C701B60170D73E
:100EE000882319F06FE871E024C026013701E894E7
:100EF00077F82FEF3FEF4FE75FE7C301B20160D70D
:100F000081110CC02FEF3FEF4FE75FE7C301B20144
:100F100055D518161CF463E971E00BC02FEF3FEFB5
:100F20004FE75FE4C701B60198D61816A4F467E945
:100F300071E0CE01DF91CF911F910F91FF90EF9063
:100F4000DF90CF90BF90AF909F908F907F906F90E9
:100F50005F904F90D6CE2FEF3FEF4FE75FECC7018A
:100F6000B6012CD587FDE3CF20E030E0A901C70111
:100F7000B60124D587FF09C06DE2CE01D9DE8C0110
:100F8000F7FAF094F7F8F09402C000E010E0A12C1A
:100F900060E070E080E09FE3AB1439F020E030E0E7
:100FA00040E251E40FD5A394F7CF9B01AC01C701F8
:100FB000B601A0D46B017C0172D52B013C019BD5FD
:100FC0009B01AC01C701B60194D46B017C012AE0FE
:100FD000B301A201CE01C6DE080F191FBB2031F0FC
:100FE0006DE071E0CE018DDE080F191F7B2C77209C
:100FF00019F120E030E040E251E4C701B60131D6FA
:101000006B017C0147D54B01AA2497FCA094BA2C14
:101010002AE030E0B501A401CE01FBDE080F191F64
:10102000C501B4016AD59B01AC01C701B60161D409
:101030006B017C017A94DBCFC801DF91CF911F91C6
:101040000F91FF90EF90DF90CF90BF90AF909F9067
:101050008F907F906F905F904F90089528CFCDD75D
:101060001F920F920FB60F9211242F933F938F93DD
:101070009F93AF93BF9380910E0390910F03A09124
:101080001003B091110330910D0323E0230F2D378E
:1010900020F40196A11DB11D05C026E8230F02967C
:1010A000A11DB11D20930D0380930E0390930F0398
:1010B000A0931003B0931103809112039091130336
:1010C000A0911403B09115030196A11DB11D809349
:1010D000120390931303A0931403B0931503BF91CD
:1010E000AF919F918F913F912F910F900FBE0F90D5
:1010F0001F9018953FB7F8948091120390911303B5
:10110000A0911403B091150326B5A89B05C02F3FED
:1011100019F00196A11DB11D3FBF6627782F892FB9
:101120009A2F620F711D811D911D42E0660F771F7E
:10113000881F991F4A95D1F70895CF92DF92EF92B9
:10114000FF92CF93DF936B017C01D4DFEB01C114DD
:10115000D104E104F10479F05BD0CCDF6C1B7D0B92
:10116000683E7340A0F381E0C81AD108E108F10895
:10117000C851DC4FECCFDF91CF91FF90EF90DF9023
:10118000CF9008958230910538F0880F991F880F0D
:10119000991F05970197F1F70895789484B58260B7
:1011A00084BD84B5816084BD85B5826085BD85B50B
:1011B000816085BDEEE6F0E0808181608083E1E8BA
:1011C000F0E01082808182608083808181608083F2
:1011D000E0E8F0E0808181608083E1EBF0E08081F5
:1011E00084608083E0EBF0E0808181608083EAE7C7
:1011F000F0E0808184608083808182608083808150
:10120000816080838081806880831092C10008950E
:101210000895FC0160830895FC0180810895DC013C
:10122000ED91FC910280F381E02D099566D420E0D8
:1012300037E347EC57E4C6D321EB3CED42E45EE3F1
:1012400073D59B01AC0160E070E080E89FE351D36F
:1012500020E03AE24DE257E404C50F931F93CF9389
:10126000DF93EC018C010E5F1F4FAC01495F5F4FB4
:1012700022E030E06AEA70E0C801F2D8AE01475FD0
:101280005F4F22E030E06CEA70E0C801E9D8AE01BF
:10129000455F5F4F22E030E06EEA70E0C801E0D8C1
:1012A000AE01435F5F4F22E030E060EB70E0C801C9
:1012B000D7D8AE01415F5F4F22E030E062EB70E0D3
:1012C000C801CED8AE014F5E5F4F22E030E064EB44
:1012D00070E0C801C5D8AE014D5E5F4F22E030E03E
:1012E00066EB70E0C801BCD8AE014B5E5F4F22E0F8
:1012F00030E068EB70E0C801B3D8AE01495E5F4FE3
:1013000022E030E06AEB70E0C801AAD8AE01475E87
:101310005F4F22E030E06CEB70E0C801A1D8AE0175
:10132000455E5F4F22E030E06EEB70E0C801DF9178
:10133000CF911F910F9194C81F93CF93DF93EC012E
:10134000162F2FE931E0FC0121933193CF0121E0E9
:1013500041E067E72AD889EA91E0998388831E8370
:101360006AE070E080E090E0E8DECE01DF91CF91AE
:101370001F9173CF0F931F93CF93DF9300D01F92D2
:10138000CDB7DEB72EE22B838C010E5F1F4F21E01D
:1013900030E0AE014D5F5F4F64EF70E0C8011CD8D4
:1013A00065E070E080E090E0C8DE22E030E0AE0171
:1013B0004F5F5F4F66EF70E0C80152D889819A8114
:1013C0000F900F900F90DF91CF911F910F91089583
:1013D000EF92FF920F931F93CF93DF9300D000D033
:1013E0001F92CDB7DEB78C0119821A821B821C8234
:1013F000FC0186818295880F880F807C8C5C8D83B0
:101400007801F2E0EF0EF11C21E030E0AE014B5F1D
:101410005F4F64EF70E0C7010E94EC0163E070E091
:10142000F801068002C0660F771F0A94E2F76E5F2C
:101430007F4F882777FD8095982F7FDE23E030E06F
:10144000AE014F5F5F4F66EF70E0C70109D8F8014A
:10145000868128E030E0281B310969817A818B81FF
:101460009C8104C096958795779567952A95D2F7C4
:101470000F900F900F900F900F90DF91CF911F91D1
:101480000F91FF90EF900895CF92DF92EF92FF922D
:10149000FC019B0140E050E081899289281B390BB7
:1014A00041095109A785B089EBD16B017C018FE01F
:1014B000F594E794D794C7948A95D1F7618D728D8E
:1014C000882777FD8095982F2BE0660F771F881F60
:1014D000991F2A95D1F7238D348D442737FD4095E8
:1014E000542F2C0D3D1D4E1D5F1DAED12C0D3D1DED
:1014F0004E1D5F1DCA01B901FF90EF90DF90CF90A4
:101500000895CF93DF93EC0135DFBC01CE01BCDF42
:10151000685F7F4F8F4F9F4F34E095958795779504
:1015200067953A95D1F7CB01DF91CF9108952F922E
:101530003F924F925F926F927F928F929F92AF9263
:10154000BF92CF92DF92EF92FF921F93CF93DF93E0
:10155000CDB7DEB72A970FB6F894DEBF0FBECDBF6A
:101560009A87898707DFBC0189859A858DDF6B01A2
:101570007C0180EAC81A8FE0D80AE108F108898561
:101580009A8526DF6D837E838F839887A7019601D6
:10159000C701B60115D14B015C01A985BA85179623
:1015A0002D903C90189716961C9116971B960D90AF
:1015B000BC91A02D6FD12B013C018DE075946794F7
:1015C000579447948A95D1F7E985FA85A389B48918
:1015D000A50194019CE055954795379527959A95D7
:1015E000D1F758D1BB2797FDB095AB2F480E591EA8
:1015F0006A1E7B1EF2E04F0E511C611C711C32E012
:1016000075946794579447943A95D1F780E8580EAB
:10161000611C711CE985FA85A585B685A301920137
:101620002FD1DC01CB014FE0B695A7959795879513
:101630004A95D1F789839A83AB83BC8321016624C1
:1016400057FC6094762C52E0440C551C661C771CA9
:101650005A95D1F7A589B689A50194011BD14B01F3
:101660005C0167E1B594A794979487946A95D1F744
:10167000A185B285A70196010DD1EBE095958795DF
:1016800077956795EA95D1F7860E971EA81EB91E25
:10169000480C591C6A1C7B1C012E04C0440C551CB0
:1016A000661C771C0A94D2F792E0490E511C611C0B
:1016B000711CF2E07594679457944794FA95D1F7AA
:1016C0008D819E81AF81B88584199509A609B709D6
:1016D0008D839E83AF83B88760E573EC80E090E0F4
:1016E00004C095958795779567951A95D2F72D81C2
:1016F0003E814F81588564D097FD0CC0660F771FDF
:10170000881F991F29813A814B815C817BD04901D7
:101710005A010BC029813A814B815C8173D0490108
:101720005A01880C991CAA1CBB1C9927B7FC9A95D6
:101730008B2D7A2D692D9B01AC0142D09B01AC0110
:10174000AEEDBBE09DD06C01FF24D7FCF094EF2CF4
:10175000A3E4B3EEA50194019FD0BB2797FDB095FC
:10176000AB2FC80ED91EEA1EFB1E9FECC90E9EE0D1
:10177000D91EE11CF11CF4E0F594E794D794C794CA
:10178000FA95D1F7C80CD91CEA1CFB1CC701B6019D
:101790002A960FB6F894DEBF0FBECDBFDF91CF9172
:1017A0001F91FF90EF90DF90CF90BF90AF909F90F0
:1017B0008F907F906F905F904F903F902F90089503
:1017C000DB018F939F935CD0BF91AF91A29F800D5F
:1017D000911DA39F900DB29F900D1124089597FB2A
:1017E000072E16F4009406D077FD08D059D007FCD8
:1017F00005D03EF4909581959F4F08957095619521
:101800007F4F0895A1E21A2EAA1BBB1BFD010DC03C
:10181000AA1FBB1FEE1FFF1FA217B307E407F507A0
:1018200020F0A21BB30BE40BF50B661F771F881F7C
:10183000991F1A9469F760957095809590959B0112
:10184000AC01BD01CF010895052E97FB16F400945D
:101850000FD057FD05D0D6DF07FC02D046F408C0F4
:1018600050954095309521953F4F4F4F5F4F0895CC
:1018700090958095709561957F4F8F4F9F4F0895FC
:1018800029D0A59F900DB49F900DA49F800D911D10
:1018900011240895B7FFF4CFF3DF821B930B089553
:1018A000AA1BBB1B51E107C0AA1FBB1FA617B70786
:1018B00010F0A61BB70B881F991F5A95A9F78095A2
:1018C0009095BC01CD010895EE0FFF1F0590F49196
:1018D000E02D0994A29FB001B39FC001A39F700D9A
:1018E000811D1124911DB29F700D811D1124911D28
:1018F00008955058BB27AA270ED075C166D130F085
:101900006BD120F031F49F3F11F41EF45BC10EF453
:10191000E095E7FB51C1E92F77D180F3BA17620751
:1019200073078407950718F071F49EF58FC10EF4C4
:10193000E0950B2EBA2FA02D0B01B90190010C01DF
:10194000CA01A0011124FF27591B99F0593F50F4F7
:10195000503E68F11A16F040A22F232F342F44274F
:10196000585FF3CF469537952795A795F040539547
:10197000C9F77EF41F16BA0B620B730B840BBAF017
:101980009150A1F0FF0FBB1F661F771F881FC2F782
:101990000EC0BA0F621F731F841F48F48795779596
:1019A0006795B795F7959E3F08F0B3CF9395880F4D
:1019B00008F09927EE0F979587950895D9D008F4E8
:1019C00081E008950CD00FC107D140F0FED030F077
:1019D00021F45F3F19F0F0C0511139C1F3C014D1A7
:1019E00098F39923C9F35523B1F3951B550BBB27E6
:1019F000AA2762177307840738F09F5F5F4F220F93
:101A0000331F441FAA1FA9F333D00E2E3AF0E0E88B
:101A100030D091505040E695001CCAF729D0FE2FD7
:101A200027D0660F771F881FBB1F26173707480769
:101A3000AB07B0E809F0BB0B802DBF01FF2793581F
:101A40005F4F2AF09E3F510568F0B6C000C15F3F6E
:101A5000ECF3983EDCF3869577956795B795F79507
:101A60009F5FC9F7880F911D9695879597F90895FF
:101A7000E1E0660F771F881FBB1F6217730784079B
:101A8000BA0720F0621B730B840BBA0BEE1F88F7AA
:101A9000E095089504D06894B111D9C00895BCD0E0
:101AA00088F09F5790F0B92F9927B751A0F0D1F047
:101AB000660F771F881F991F1AF0BA95C9F712C0D1
:101AC000B13081F0C3D0B1E00895C0C0672F782F46
:101AD0008827B85F39F0B93FCCF38695779567953D
:101AE000B395D9F73EF490958095709561957F4FA9
:101AF0008F4F9F4F0895E89409C097FB3EF490954F
:101B00008095709561957F4F8F4F9F4F9923A9F0D6
:101B1000F92F96E9BB279395F69587957795679565
:101B2000B795F111F8CFFAF4BB0F11F460FF1BC0A9
:101B30006F5F7F4F8F4F9F4F16C0882311F096E93C
:101B400011C0772321F09EE8872F762F05C06623EA
:101B500071F096E8862F70E060E02AF09A95660FA3
:101B6000771F881FDAF7880F9695879597F908955C
:101B7000990F0008550FAA0BE0E8FEEF161617069E
:101B8000E807F907C0F012161306E407F50798F006
:101B9000621B730B840B950B39F40A2661F0232B1F
:101BA000242B252B21F408950A2609F4A140A6959B
:101BB0008FEF811D811D089597F99F6780E870E080
:101BC00060E008959FEF80EC089500240A941616B3
:101BD000170618060906089500240A94121613061B
:101BE000140605060895092E0394000C11F48823A9
:101BF00052F0BB0F40F4BF2B11F460FF04C06F5FC5
:101C00007F4F8F4F9F4F089557FD9058440F551F9A
:101C100059F05F3F71F04795880F97FB991F61F06E
:101C20009F3F79F087950895121613061406551FE5
:101C3000F2CF4695F1DF08C0161617061806991F51
:101C4000F1CF86957105610508940895E894BB2746
:101C500066277727CB0197F908958ADF08F48FEF7D
:101C600008950BD0C0CFB1DF28F0B6DF18F0952370
:101C700009F0A2CFA7CF1124EACFC6DFA0F3959F2A
:101C8000D1F3950F50E0551F629FF001729FBB2763
:101C9000F00DB11D639FAA27F00DB11DAA1F649F0F
:101CA0006627B00DA11D661F829F2227B00DA11DC2
:101CB000621F739FB00DA11D621F839FA00D611D48
:101CC000221F749F3327A00D611D231F849F600D69
:101CD000211D822F762F6A2F11249F5750408AF0A2
:101CE000E1F088234AF0EE0FFF1FBB1F661F771F2E
:101CF000881F91505040A9F79E3F510570F05CCF6E
:101D0000A6CF5F3FECF3983EDCF386957795679519
:101D1000B795F795E7959F5FC1F7FE2B880F911D4B
:101D20009695879597F90895FA01EE0FFF1F309663
:101D30002105310599F16115710561F48038BFE322
:101D40009B0749F168949038810561F08038BFEFB6
:101D50009B0741F0992342F5FF3FE105310521053D
:101D600011F1E8940894E795D901AA2329F4AB2F3F
:101D7000BE2FF85FD0F310C0FF5F70F4A695E0F7B8
:101D8000F73950F019F0FF3A38F49F779F930CD051
:101D90000F9007FC905808953EF014CF60E070E07B
:101DA00080E89FE308954FE79F775F934F933F93BA
:101DB0002F93A2D02F913F914F915F9152DF09C095
:101DC000D7DE880B990B089519F40EF0F5CE3ECFAF
:101DD000F9CE22DFC8F39638C0F707F80F92E894DF
:101DE0002BE33AEA48EB5FE74ADF0F920F920F923C
:101DF0004DB75EB70F92C0D0E8E6F0E016D04F9135
:101E00005F91EF91FF91E595EE1FFF1F49F0FE579F
:101E1000E0684427EE0F441FFA95E1F74195550B12
:101E200032D00F9007FE26C00895DF93CF931F9303
:101E30000F93FF92EF92DF927B018C01689405C0B3
:101E4000DA2EEF011ADFFE01E894A5912591359174
:101E500045915591AEF3EF015EDDFE019701A801BA
:101E6000DA9479F7DF90EF90FF900F911F91CF9167
:101E7000DF9108959B01AC0160E070E080E89FE392
:101E8000A1CD9ACEACC0C8DEE8F39923D9F3940F64
:101E9000511DBBF39150504094F059F0882332F01B
:101EA000660F771F881F91505040C1F79E3F510524
:101EB00044F7880F911D9695879597F908955F3F90
:101EC000ACF0983E9CF0BB27869577956795B795C3
:101ED00008F4B1609395C1F7BB0F58F711F460FF98
:101EE000E8CF6F5F7F4F8F4F9F4FE3CFB0CE0EF0A5
:101EF00076C068CE689460CE8FDEC8F39923D1F3A4
:101F0000C6F3DF93CF931F930F93FF92C92FDD2763
:101F100088232AF02197660F771F881FDAF720E0C1
:101F200030E040E85FEB9FE3883920F0803E30F0FE
:101F300021968F77DFDCE0E9F0E003C0DBDCEDEB3E
:101F4000F0E073DF8B01BE01EC01FB2E6F577109CE
:101F50007595771F880B990BD0DD28E132E741E3B7
:101F60005FE38BDEAF2D9801AE01FF900F911F91C3
:101F7000CF91DF91D0DC37CEFA01DC01AA0FBB1F75
:101F80009B01AC01BF5728F4222733274427507800
:101F90001FC0B75188F4AB2F00244695379527957D
:101FA000011CA395D2F3002069F0220F331F441FB8
:101FB000B395DAF30DD09DCC61307105A0E88A07A6
:101FC000B94630F49B01AC016627772788279078C3
:101FD000309621F0208331834283538308959F3FBD
:101FE00031F0915020F4879577956795B795880FD4
:101FF000911D9695879597F9089581E090E0F89462
:0620000000C0F894FFCFC0
:10200600696E697469616C697A65642E2E2E006248
:1020160061726F6D657465722E67657454656D7057
:102026006572617475726528293A200020C2BA4328
:10203600006261726F6D657465722E6765745072A9
:1020460065737375726528293A2000205061006215
:1020560061726F6D657465722E676574416C746923
:102066007475646528293A2000206D000000000080
:10207600610135010A011201250134010000000049
:10208600FB0459068C04A5049704DA040D0A006EB5
:10209600616E00696E66006F766600000000002FB4
:1020A600082F082F0800000000810A970A0F090070
:00000001FF
