:100000005AC000007EC000007CC000007AC0000022
:1000100078C0000076C0000074C0000072C000000C
:1000200070C000006EC000006CC000006AC000001C
:1000300068C0000066C0000064C0000062C000002C
:10004000B4C300005EC00000F6C2000026C300007A
:1000500058C0000056C0000054C0000052C000004C
:1000600023C500004EC0000000000008000201008F
:100070000003040700000000000000000102040863
:100080001020408001020408102001020408102002
:10009000040404040404040402020202020203032E
:1000A0000303030300000000250028002B0092003A
:1000B000F2017B03960011241FBECFEFD8E0DEBF14
:1000C000CDBF11E0A0E0B1E0ECE3F5E102C00590A6
:1000D0000D92A235B107D9F722E0A2E5B1E001C047
:1000E0001D92AA3CB207E1F710E0CAE5D0E003C0D8
:1000F0002197FE01EAD7C735D107D1F748D00C9434
:10010000920A7ECF26E040E855E260E070E082EBA4
:1001100091E02ED267E08CE591E082D660E18CE53B
:1001200091E06AC660E08CE591E04EC68AE391E01A
:1001300090935D0180935C018CE591E0DFC666E5FC
:1001400071E08CE591E053D66AEA82EB91E0CAD186
:1001500046E050E066E571E082EB91E0F9D260E0C4
:1001600082EB91E0BFD16BD3609352017093530146
:10017000809354019093550144E050E062E571E0B2
:1001800082EB91E0E5D26BEB82EB91E0ABC16ED3F9
:10019000B9DFC3E2D2E0D3DF2097E9F354D1FBCF3C
:1001A0008091900190E020919101821B9109089526
:1001B0009091910180919001981750F4E92FF0E00F
:1001C000EE56FE4F208130E09F5F9093910102C078
:1001D0002FEF3FEFC9010895E091910180919001C7
:1001E000E81730F4F0E0EE56FE4F808190E008957D
:1001F0008FEF9FEF08950895CF92DF92EF92FF92D5
:100200000F931F93CF93DF937C01262F972F8A01A3
:1002100080916C01882391F0C62FD72F6E01C40EF8
:10022000D51ECC15DD0569F06991D701ED91FC91E2
:100230000190F081E02DC7010995F3CF642F822F43
:100240000AD4C801DF91CF911F910F91FF90EF90D9
:10025000DF90CF900895CF93DF931F92CDB7DEB795
:10026000698320916C012223D1F020916D0120320D
:1002700040F021E030E0FC013383228380E090E015
:1002800014C080916E01E82FF0E0E159FE4F998192
:1002900090838F5F80936E0180936D0104C061E055
:1002A000CE010196D8D381E090E00F90DF91CF91FD
:1002B0000895FC011382128288EE93E0A0E0B0E082
:1002C00084839583A683B7838AE191E091838083B9
:1002D0000895109291011092900110926E01109267
:1002E0006D01FFC281E080936C0160938F011092D9
:1002F0006E0110926D0108950F93062F21E0409139
:100300006D016FE671E080918F014FD310926E0105
:1003100010926D0110926C010F9108954F925F92AF
:100320006F927F92AF92BF92CF92EF92FF920F9314
:100330001F93CF93DF935C01F62ED42F2801390150
:10034000EE2011F1CFDFCE2DC43008F0C3E0C15054
:10035000C0F0D501ED91FC91B8E0CB9FC001112414
:10036000A301920104C056954795379527958A9524
:10037000D2F7CA01B9010190F081E02DC5010995BC
:10038000E6CF60E0C501B8DF4D2FD13208F040E282
:100390002C2D62E971E08F2DC0D2109291018093D3
:1003A0009001DF91CF911F910F91FF90EF90CF902F
:1003B000BF90AF907F906F905F904F900895CF92D5
:1003C000EF920F931F93C22EE12C00E010E09801F2
:1003D000A5DF1F910F91EF90CF90089521E0EFCF0F
:1003E00061E08ACF80E691E064CFFC01918D228D9F
:1003F000892F90E0805C9F4F821B91098F73992712
:100400000895FC01918D828D981731F0828DE80F4F
:10041000F11D858D90E008958FEF9FEF0895FC0109
:10042000918D828D981761F0828DDF01A80FB11D2B
:100430005D968C91928D9F5F9F73928F90E008954F
:100440008FEF9FEF089582E793E0892B41F080E0E2
:1004500090E0892B21F046D181110C940000089581
:10046000FC01848DDF01A80FB11DA35ABF4F2C9151
:10047000848D90E001968F739927848FA689B78920
:100480002C93A089B1898C9180648C93938D848DF9
:10049000981306C00288F389E02D80818F7D8083C8
:1004A0000895CF93DF93EC01888D8823C1F0EA890A
:1004B000FB89808185FD05C0A889B9898C9186FD5D
:1004C0000EC00FB607FCF5CF808185FFF2CFA8895B
:1004D000B9898C9185FFEDCFCE01C2DFE8CFDF91E6
:1004E000CF910895EF92FF920F931F93CF93DF93D5
:1004F000EC0181E0888F9B8D8C8D981305C0E88975
:10050000F989808185FD23C0F62E0B8D10E00F5FE9
:100510001F4F0F731127E02E8C8DE8120BC00FB602
:1005200007FCFACFE889F989808185FFF5CFCE01F4
:1005300097DFF2CF8B8DFE01E80FF11DE35AFF4FDD
:10054000F0820B8FEA89FB898081806207C0EE8987
:10055000FF896083E889F98980818064808381E0F4
:1005600090E0DF91CF911F910F91FF90EF90089550
:10057000CF92DF92EF92FF921F93CF93DF93EC0124
:100580006A017B01122FE889F98982E08083411595
:10059000514E61057105A9F060E079E08DE390E0CE
:1005A000A701960170D5DA01C9010197A109B10926
:1005B000B695A79597958795AC01411580E15807A9
:1005C000A0F0E889F989108260E874E88EE190E093
:1005D000A701960158D5BA01A901415051096109F5
:1005E00071097695679557954795EC85FD855083FC
:1005F000EE85FF854083188EEC89FD891083EA899A
:10060000FB89808180618083EA89FB8980818860A1
:100610008083EA89FB89808180688083EA89FB89FD
:1006200080818F7D8083DF91CF911F91FF90EF902C
:10063000DF90CF9008951F920F920FB60F92112462
:100640002F938F939F93EF93FF93E091C201F091CB
:10065000C3018081E091C801F091C90182FD12C0FF
:1006600090818091CB018F5F8F732091CC01821795
:1006700051F0E091CB01F0E0EE54FE4F958F809366
:10068000CB0101C08081FF91EF919F918F912F91BC
:100690000F900FBE0F901F9018951F920F920FB6DC
:1006A0000F9211242F933F934F935F936F937F93F8
:1006B0008F939F93AF93BF93EF93FF9382EB91E060
:1006C000CFDEFF91EF91BF91AF919F918F917F917D
:1006D0006F915F914F913F912F910F900FBE0F90AF
:1006E0001F90189582EB91E080DE21E0892B09F4C0
:1006F00020E0822F0895E2EBF1E01382128288EE6F
:1007000093E0A0E0B0E084839583A683B7838AE278
:1007100091E09183808385EC90E09587848784ECD9
:1007200090E09787868780EC90E0918B808B81ECBE
:1007300090E0938B828B82EC90E0958B848B86EC9F
:1007400090E0978B868B118E128E138E148E0895E7
:10075000CF92DF92EF92FF920F931F93CF93DF938D
:100760006C017A018B01C0E0D0E0CE15DF0589F085
:10077000D8016D918D01D601ED91FC910190F08130
:10078000E02DC6010995892B11F47E0102C0219646
:10079000ECCFC701DF91CF911F910F91FF90EF90A8
:1007A000DF90CF900895BAD621C61F920F920FB650
:1007B0000F9211242F933F938F939F93AF93BF93E7
:1007C0008091500290915102A0915202B091530237
:1007D00030914F0223E0230F2D3720F40196A11D05
:1007E000B11D05C026E8230F0296A11DB11D20935F
:1007F0004F028093500290935102A0935202B09303
:1008000053028091540290915502A0915602B091EA
:1008100057020196A11DB11D809354029093550279
:10082000A0935602B0935702BF91AF919F918F91C1
:100830003F912F910F900FBE0F901F9018952FB7DB
:10084000F8946091500270915102809152029091FF
:1008500053022FBF08958230910538F0880F991FF9
:10086000880F991F05970197F1F70895789484B53B
:10087000826084BD84B5816084BD85B5826085BD9C
:1008800085B5816085BDEEE6F0E080818160808382
:10089000E1E8F0E010828081826080838081816065
:1008A0008083E0E8F0E0808181608083E1EBF0E02C
:1008B000808184608083E0EBF0E0808181608083D0
:1008C000EAE7F0E0808184608083808182608083B9
:1008D0008081816080838081806880831092C100E4
:1008E00008951092C50281E08093C3021092C20263
:1008F00061E082E12CD261E083E129D2E9EBF0E012
:1009000080818E7F808380818D7F808388E4809347
:10091000B80085E48093BC000895413208F043C0DC
:100920009091C5029111FCCF91E09093C502209364
:10093000C3022FEF2093580210929D02240F2093A0
:100940009C029093C4029091C402880F892B8093DB
:10095000C4028091C202813061F41092C20280917F
:10096000C4028093BB008091BC0083FDF8CF85EC6E
:1009700001C085EE8093BC008091C5028130E1F317
:1009800080919D02841710F440919D022EE932E07F
:10099000FB01D9018A2F821B841718F48D91819352
:1009A000F9CF842F089580E008950F93413208F025
:1009B0004AC09091C5029111FCCF32E03093C5023C
:1009C0000093C3023FEF3093580210929D02409370
:1009D0009C02FB016EE972E0DB013A2F361B3417F3
:1009E00018F431913D93F9CF1092C4023091C402B2
:1009F000880F832B8093C4028091C202813061F4FE
:100A00001092C2028091C4028093BB008091BC000E
:100A100083FDF8CF85EC01C085EE8093BC002223D6
:100A200021F08091C5028230D1F3809158028F3F2E
:100A300079F080915802803241F0809158028033E1
:100A400031F094E005C091E003C092E001C093E072
:100A5000892F0F910895613298F42091C5022430B6
:100A600089F460937A02FC012CE732E0D9018A2FE5
:100A7000821B861718F481918D93F9CF80E0089539
:100A800081E0089582E0089585ED8093BC00809117
:100A9000BC0084FDFCCF1092C502089585EC8093C4
:100AA000BC001092C50208951F920F920FB60F92CC
:100AB00011242F933F934F935F936F937F938F9363
:100AC0009F93AF93BF93EF93FF938091B900887F7B
:100AD000803609F49DC070F5883209F45CC090F44A
:100AE000803109F455C038F4882309F4F3C0883004
:100AF00009F44EC0F2C0883109F44DC0803209F4C7
:100B00005EC0EBC0803409F469C050F4803309F44E
:100B100056C0883309F0E1C080935802BFDFDDC0C2
:100B2000803509F44FC0883509F45DC0883409F078
:100B3000D4C0D2C0883909F4C3C0A8F4883709F4F6
:100B400067C038F4883609F463C0803709F460C0A0
:100B5000C4C0883809F4B4C0803909F45FC0803853
:100B600009F0BBC05BC0803B09F482C038F4803A16
:100B700009F466C0883A09F47BC0AFC0803C09F430
:100B8000A3C0883C09F4A0C0883B09F486C0A5C076
:100B90008091C40210C090919D0280919C02981790
:100BA00070F5E0919D0281E08E0F80939D02F0E050
:100BB000E256FD4F80818093BB0085EC82C080931C
:100BC00058028AC0E0919D0281E08E0F80939D02C1
:100BD0008091BB00F0E0E256FD4F808390919D0232
:100BE00080919C026AC0E0919D0281E08E0F80930B
:100BF0009D028091BB00F0E0E256FD4F8083809122
:100C0000C302811169C081E08093C20284EA5DC0A1
:100C100083E08093C50210925902CFCF8091590290
:100C2000803208F04DC0E091590281E08E0F809330
:100C300059028091BB00F0E0E65AFD4F8083BDCFA2
:100C40002DDF80915902803230F4E0915902F0E0BA
:100C5000E65AFD4F10826091590270E0E091BE02A9
:100C6000F091BF028AE592E009951092590235C0D1
:100C700084E08093C50210927B0210927A02E09188
:100C8000C002F091C102099580917A02811105C0DC
:100C900081E080937A0210927C02E0917B0281E0F5
:100CA0008E0F80937B02F0E0E458FD4F80818093AB
:100CB000BB0090917B0280917A02981708F47DCF57
:100CC00085E88093BC0009C085EC8093BC0010923D
:100CD000C50203C010925802D7DEFF91EF91BF9179
:100CE000AF919F918F917F916F915F914F913F91C4
:100CF0002F910F900FBE0F901F901895833081F0A9
:100D000028F4813099F08230A1F008958730A9F05D
:100D10008830B9F08430D1F4809180008F7D03C099
:100D2000809180008F7780938000089584B58F77BD
:100D300002C084B58F7D84BD08958091B0008F7707
:100D400003C08091B0008F7D8093B00008951F9301
:100D5000CF93DF93282F30E0F901E859FF4F8491BA
:100D6000F901E458FF4FD491F901E057FF4FC491C6
:100D7000CC23C1F0162F8111C1DFEC2FF0E0EE0F74
:100D8000FF1FEC55FF4FA591B4918FB7F894111147
:100D900005C09C91ED2FE095E92302C0EC91ED2B6D
:100DA000EC938FBFDF91CF911F9108952AE331E03B
:100DB000FC0131832083A2C0CF93DF93EC01F6DFE7
:100DC000CE01DF91CF91F0CCCF93DF93EC0128E4FB
:100DD00031E0FC0121933193CF01686698D08AE31A
:100DE00091E0998388831B82DF91CF910895AB01B5
:100DF00026E063E40296BFC00F931F93CF938C014C
:100E0000C62F262F48E16BE102961FD1C871F80169
:100E10008381877EC82BC383CF911F910F91089543
:100E2000262F209547E06CE602960FC10F931F9383
:100E3000CF93DF93CDB7DEB760970FB6F894DEBFE0
:100E40000FBECDBF8C01FB018081682F70E0762F33
:100E500066278181682B80E1E6E0F1E0DE011196F2
:100E600001900D928A95E1F7072E000C880B990BE3
:100E70009CD1F80123812695269526952370E1E0E3
:100E8000F0E0EC0FFD1F34E0239FE00DF11D112475
:100E900020813181428153811ED160960FB6F89432
:100EA000DEBF0FBECDBFDF91CF911F910F9108958F
:100EB0000F931F93CF93DF9300D0CDB7DEB78C0194
:100EC00022E0AE014F5F5F4F029655D0029731F49A
:100ED000BE016F5F7F4FC801A9DF03C060E070E013
:100EE000CB010F900F90DF91CF911F910F9108953B
:100EF00063E4DECF65E4DCCF67E4DACF0895FC017C
:100F0000608380E691E0E5C9FC0180810895F7CF18
:100F1000EF92FF921F93CF93DF931F92CDB7DEB76F
:100F2000162F7A012983F0DF682F80E691E0DAD965
:100F3000612F80E691E08FD92981422F50E0B701DF
:100F400080E691E059D980E691E00F90DF91CF9152
:100F50001F91FF90EF9044CACF93DF931F92CDB7BC
:100F6000DEB7498321E0AE014F5F5F4FD1DF0F90C5
:100F7000DF91CF910895DF92EF92FF920F931F932D
:100F8000CF93DF938C01C62FF42ED52ED22FBCDF4A
:100F9000682F80E691E0A6D96C2F80E691E05BD9BE
:100FA00060E080E691E0A8D9882329F090E091954F
:100FB0008195910930C0C801A7DF4D2F682F80E6C9
:100FC00091E00CDACAE080E691E0EAD8892B49F496
:100FD000C15021F081E090E03EDCF5CF8BEF9FEF38
:100FE0001AC0CC23D9F3EF2C0F2D1D2DC02FCE19F5
:100FF000CD1728F480E691E0D3D8892B19F48C2FF3
:1010000090E009C080E691E0D3D897FDF8CFF801D1
:1010100081938F01EBCFDF91CF911F910F91FF90C3
:10102000EF90DF900895CF93DF931F92CDB7DEB797
:1010300021E0AE014F5F5F4F9EDF97FD02C08981C7
:1010400090E00F90DF91CF910895FF920F931F933F
:10105000CF93DF9300D0CDB7DEB78C01F62E2A8375
:101060004983E1DF4981942F909589232A81422386
:10107000482B6F2DC8010F900F90DF91CF911F91DA
:101080000F91FF9069CFA1E21A2EAA1BBB1BFD0195
:101090000DC0AA1FBB1FEE1FFF1FA217B307E40757
:1010A000F50720F0A21BB30BE40BF50B661F771FAF
:1010B000881F991F1A9469F760957095809590958F
:1010C0009B01AC01BD01CF010895EE0FFF1F0590FC
:1010D000F491E02D09940CD0BAC0B2D040F0A9D060
:1010E00030F021F45F3F19F09BC05111E4C09EC065
:1010F000BFD098F39923C9F35523B1F3951B550B32
:10110000BB27AA2762177307840738F09F5F5F4FDA
:10111000220F331F441FAA1FA9F333D00E2E3AF01B
:10112000E0E830D091505040E695001CCAF729D035
:10113000FE2F27D0660F771F881FBB1F2617370784
:101140004807AB07B0E809F0BB0B802DBF01FF27B4
:1011500093585F4F2AF09E3F510568F061C0ABC0C5
:101160005F3FECF3983EDCF3869577956795B795EE
:10117000F7959F5FC9F7880F911D9695879597F909
:101180000895E1E0660F771F881FBB1F6217730782
:101190008407BA0720F0621B730B840BBA0BEE1F97
:1011A00088F7E0950895E89409C097FB3EF4909580
:1011B0008095709561957F4F8F4F9F4F9923A9F030
:1011C000F92F96E9BB279395F695879577956795BF
:1011D000B795F111F8CFFAF4BB0F11F460FF1BC003
:1011E0006F5F7F4F8F4F9F4F16C0882311F096E996
:1011F00011C0772321F09EE8872F762F05C0662344
:1012000071F096E8862F70E060E02AF09A95660FFC
:10121000771F881FDAF7880F9695879597F90895B5
:1012200097F99F6780E870E060E008959FEF80EC99
:10123000089500240A94161617061806090608953C
:1012400000240A9412161306140605060895092EA2
:101250000394000C11F4882352F0BB0F40F4BF2B11
:1012600011F460FF04C06F5F7F4F8F4F9F4F089551
:1012700057FD9058440F551F59F05F3F71F0479547
:10128000880F97FB991F61F09F3F79F0879508952C
:10129000121613061406551FF2CF4695F1DF08C04B
:1012A000161617061806991FF1CF86957105610568
:1012B00008940895E894BB2766277727CB0197F910
:1012C0000895CF93DF938230910510F482E090E08F
:1012D000E091C802F091C90220E030E0C0E0D0E027
:1012E000309711F14081518148175907C0F04817D4
:1012F000590761F482819381209719F09B838A8337
:101300002BC09093C9028093C80226C021153105D5
:1013100019F04217530718F49A01BE01DF01EF01DB
:101320000280F381E02DDCCF2115310509F1281B66
:10133000390B2430310590F412968D919C911397BE
:101340006115710521F0FB019383828304C09093A2
:10135000C9028093C802FD01329644C0FD01E20F2C
:10136000F31F81939193225031092D933C933AC0FE
:101370002091C6023091C702232B41F42091020133
:10138000309103013093C7022093C60220910001DF
:10139000309101012115310541F42DB73EB740913F
:1013A000040150910501241B350BE091C602F09118
:1013B000C702E217F307A0F42E1B3F0B28173907CB
:1013C00078F0AC014E5F5F4F2417350748F04E0FA1
:1013D0005F1F5093C7024093C6028193919302C04E
:1013E000E0E0F0E0CF01DF91CF9108950F931F93DC
:1013F000CF93DF93009709F48CC0FC0132971382DE
:1014000012820091C8021091C9020115110581F4E0
:1014100020813181820F931F2091C6023091C70233
:101420002817390779F5F093C702E093C60271C017
:10143000D80140E050E0AE17BF0750F412962D914E
:101440003C911397AD012115310509F1D901F3CF75
:101450009D01DA013383228360817181860F971F9A
:101460008217930769F4EC0128813981260F371F11
:101470002E5F3F4F318320838A819B8193838283B8
:10148000452B29F4F093C902E093C80242C0139699
:10149000FC93EE931297ED01499159919E01240F0F
:1014A000351FE217F30771F480819181840F951F36
:1014B000029611969C938E938281938113969C93AE
:1014C0008E931297E0E0F0E0D80112968D919C91F6
:1014D0001397009719F0F8018C01F6CF8D919C912C
:1014E00098012E5F3F4F820F931F2091C6023091CB
:1014F000C7022817390769F4309729F41092C902F6
:101500001092C80202C0138212821093C702009385
:10151000C602DF91CF911F910F91089581E090E075
:10152000F89400C010E0CAE5D0E003C0FE01CDDDB4
:0C1530002196CB35D107D1F7F894FFCFFE
:10153C000000CA0220000000034300008342333342
:10154C00034233338341000000002B01FC00D00028
:10155C00D800EC00FB00000000007202A803F501AB
:10156C000F020102510200000000D606DC067807CB
:10157C007A077C070000000000000000D303D303AF
:02158C00D30387
:00000001FF
