:100000005BC0000069C0000067C0000065C0000060
:1000100063C0000061C000005FC000005DC0000060
:100020005BC0000059C0000057C0000055C0000070
:1000300053C0000051C000004FC000004DC0000080
:1000400069C0000049C0000047C0000045C0000072
:1000500043C0000041C000003FC000003DC00000A0
:100060003BC0000039C00000000000080002010091
:100070000003040700000000000000000102040863
:100080001020408001020408102001020408102002
:10009000040404040404040402020202020203032E
:1000A0000303030300000000250028002B000000CC
:1000B0000000240027002A0011241FBECFEFD8E043
:1000C000DEBFCDBF21E0A0E0B1E001C01D92A930AC
:1000D000B207E1F715D095C193CF61E08DE022C161
:1000E00061E08DE058D164EF71E080E090E07FD076
:1000F00060E08DE050D164EF71E080E090E077C087
:10010000ADD0EBDFC0E0D0E0EBDF2097E9F30E9459
:100110000000FACF1F920F920FB60F9211242F9367
:100120003F938F939F93AF93BF93809101019091E1
:100130000201A0910301B09104013091000123E07C
:10014000230F2D3720F40196A11DB11D05C026E80F
:10015000230F0296A11DB11D209300018093010180
:1001600090930201A0930301B093040180910501D3
:1001700090910601A0910701B09108010196A11D7F
:10018000B11D8093050190930601A0930701B093E0
:100190000801BF91AF919F918F913F912F910F9047
:1001A0000FBE0F901F9018953FB7F89480910501EE
:1001B00090910601A0910701B091080126B5A89B76
:1001C00005C02F3F19F00196A11DB11D3FBF662745
:1001D000782F892F9A2F620F711D811D911D42E08A
:1001E000660F771F881F991F4A95D1F708958F9240
:1001F0009F92AF92BF92CF92DF92EF92FF926B01EC
:100200007C01D2DF4B015C01C114D104E104F10493
:10021000E1F0F6D0C9DF681979098A099B09683EBF
:1002200073408105910580F321E0C21AD108E108ED
:10023000F10888EE880E83E0981EA11CB11CC11441
:10024000D104E104F10431F7DFCFFF90EF90DF90AC
:10025000CF90BF90AF909F908F900895789484B581
:10026000826084BD84B5816084BD85B5826085BDB2
:1002700085B5816085BDEEE6F0E080818160808398
:10028000E1E8F0E01082808182608083808181607B
:100290008083E0E8F0E0808181608083E1EBF0E042
:1002A000808184608083E0EBF0E0808181608083E6
:1002B000EAE7F0E0808184608083808182608083CF
:1002C0008081816080838081806880831092C100FA
:1002D0000895833081F028F4813099F08230A1F0C4
:1002E00008958730A9F08830B9F08430D1F4809136
:1002F00080008F7D03C0809180008F778093800085
:10030000089584B58F7702C084B58F7D84BD08952C
:100310008091B0008F7703C08091B0008F7D809373
:10032000B0000895CF93DF9390E0FC01E458FF4FB5
:100330002491FC01E057FF4F8491882349F190E01C
:10034000880F991FFC01E255FF4FA591B4918C5580
:100350009F4FFC01C591D4919FB7611108C0F894DB
:100360008C91209582238C93888182230AC06230ED
:1003700051F4F8948C91322F309583238C9388819B
:10038000822B888304C0F8948C91822B8C939FBF1E
:10039000DF91CF9108950F931F93CF93DF931F9217
:1003A000CDB7DEB7282F30E0F901E859FF4F84912F
:1003B000F901E458FF4F1491F901E057FF4F049100
:1003C0000023C1F0882319F0698383DF6981E02F5E
:1003D000F0E0EE0FFF1FEC55FF4FA591B4919FB7D2
:1003E000F8948C91611103C01095812301C0812B79
:1003F0008C939FBF0F90DF91CF911F910F91089524
:060400000895F894FFCFFF
:00000001FF
